{
  "_format": "hh-sol-artifact-1",
  "contractName": "CreatorShareFactory",
  "sourceName": "contracts/CreatorShareFactory.sol",
  "abi": [
    {
      "inputs": [
        {
          "internalType": "address",
          "name": "_usdc",
          "type": "address"
        },
        {
          "internalType": "address",
          "name": "_owner",
          "type": "address"
        }
      ],
      "stateMutability": "nonpayable",
      "type": "constructor"
    },
    {
      "inputs": [],
      "name": "InvalidCreatorAddress",
      "type": "error"
    },
    {
      "inputs": [],
      "name": "InvalidMarketContract",
      "type": "error"
    },
    {
      "inputs": [],
      "name": "InvalidTokenParams",
      "type": "error"
    },
    {
      "inputs": [],
      "name": "NotWhitelistedMarket",
      "type": "error"
    },
    {
      "inputs": [
        {
          "internalType": "address",
          "name": "owner",
          "type": "address"
        }
      ],
      "name": "OwnableInvalidOwner",
      "type": "error"
    },
    {
      "inputs": [
        {
          "internalType": "address",
          "name": "account",
          "type": "address"
        }
      ],
      "name": "OwnableUnauthorizedAccount",
      "type": "error"
    },
    {
      "inputs": [],
      "name": "ShareContractAlreadyExists",
      "type": "error"
    },
    {
      "inputs": [],
      "name": "SharesNotUnlocked",
      "type": "error"
    },
    {
      "anonymous": false,
      "inputs": [
        {
          "indexed": true,
          "internalType": "address",
          "name": "marketContract",
          "type": "address"
        },
        {
          "indexed": false,
          "internalType": "uint256",
          "name": "timestamp",
          "type": "uint256"
        }
      ],
      "name": "MarketContractAdded",
      "type": "event"
    },
    {
      "anonymous": false,
      "inputs": [
        {
          "indexed": true,
          "internalType": "address",
          "name": "marketContract",
          "type": "address"
        },
        {
          "indexed": false,
          "internalType": "uint256",
          "name": "timestamp",
          "type": "uint256"
        }
      ],
      "name": "MarketContractRemoved",
      "type": "event"
    },
    {
      "anonymous": false,
      "inputs": [
        {
          "indexed": true,
          "internalType": "address",
          "name": "previousOwner",
          "type": "address"
        },
        {
          "indexed": true,
          "internalType": "address",
          "name": "newOwner",
          "type": "address"
        }
      ],
      "name": "OwnershipTransferred",
      "type": "event"
    },
    {
      "anonymous": false,
      "inputs": [
        {
          "indexed": true,
          "internalType": "address",
          "name": "creator",
          "type": "address"
        },
        {
          "indexed": true,
          "internalType": "address",
          "name": "shareContract",
          "type": "address"
        },
        {
          "indexed": false,
          "internalType": "string",
          "name": "name",
          "type": "string"
        },
        {
          "indexed": false,
          "internalType": "string",
          "name": "symbol",
          "type": "string"
        },
        {
          "indexed": false,
          "internalType": "uint256",
          "name": "timestamp",
          "type": "uint256"
        }
      ],
      "name": "SharesCreated",
      "type": "event"
    },
    {
      "anonymous": false,
      "inputs": [
        {
          "indexed": true,
          "internalType": "address",
          "name": "creator",
          "type": "address"
        },
        {
          "indexed": false,
          "internalType": "uint256",
          "name": "finalVolume",
          "type": "uint256"
        },
        {
          "indexed": false,
          "internalType": "uint256",
          "name": "timestamp",
          "type": "uint256"
        }
      ],
      "name": "SharesUnlocked",
      "type": "event"
    },
    {
      "anonymous": false,
      "inputs": [
        {
          "indexed": true,
          "internalType": "address",
          "name": "creator",
          "type": "address"
        },
        {
          "indexed": false,
          "internalType": "uint256",
          "name": "additionalVolume",
          "type": "uint256"
        },
        {
          "indexed": false,
          "internalType": "uint256",
          "name": "newTotalVolume",
          "type": "uint256"
        },
        {
          "indexed": false,
          "internalType": "uint256",
          "name": "timestamp",
          "type": "uint256"
        }
      ],
      "name": "VolumeUpdated",
      "type": "event"
    },
    {
      "inputs": [],
      "name": "VOLUME_THRESHOLD",
      "outputs": [
        {
          "internalType": "uint256",
          "name": "",
          "type": "uint256"
        }
      ],
      "stateMutability": "view",
      "type": "function"
    },
    {
      "inputs": [
        {
          "internalType": "address",
          "name": "market",
          "type": "address"
        }
      ],
      "name": "addMarketContract",
      "outputs": [],
      "stateMutability": "nonpayable",
      "type": "function"
    },
    {
      "inputs": [
        {
          "internalType": "uint256",
          "name": "",
          "type": "uint256"
        }
      ],
      "name": "allCreatorShares",
      "outputs": [
        {
          "internalType": "address",
          "name": "",
          "type": "address"
        }
      ],
      "stateMutability": "view",
      "type": "function"
    },
    {
      "inputs": [
        {
          "internalType": "address",
          "name": "creator",
          "type": "address"
        }
      ],
      "name": "canCreateShares",
      "outputs": [
        {
          "internalType": "bool",
          "name": "canCreate",
          "type": "bool"
        },
        {
          "internalType": "string",
          "name": "reason",
          "type": "string"
        }
      ],
      "stateMutability": "view",
      "type": "function"
    },
    {
      "inputs": [
        {
          "internalType": "address",
          "name": "creator",
          "type": "address"
        },
        {
          "internalType": "string",
          "name": "name",
          "type": "string"
        },
        {
          "internalType": "string",
          "name": "symbol",
          "type": "string"
        }
      ],
      "name": "createCreatorShares",
      "outputs": [
        {
          "internalType": "address",
          "name": "shareContract",
          "type": "address"
        }
      ],
      "stateMutability": "nonpayable",
      "type": "function"
    },
    {
      "inputs": [
        {
          "internalType": "address",
          "name": "",
          "type": "address"
        }
      ],
      "name": "creatorShareContract",
      "outputs": [
        {
          "internalType": "address",
          "name": "",
          "type": "address"
        }
      ],
      "stateMutability": "view",
      "type": "function"
    },
    {
      "inputs": [
        {
          "internalType": "address",
          "name": "",
          "type": "address"
        }
      ],
      "name": "creatorTotalVolume",
      "outputs": [
        {
          "internalType": "uint256",
          "name": "",
          "type": "uint256"
        }
      ],
      "stateMutability": "view",
      "type": "function"
    },
    {
      "inputs": [],
      "name": "getAllCreatorShares",
      "outputs": [
        {
          "internalType": "address[]",
          "name": "shares",
          "type": "address[]"
        }
      ],
      "stateMutability": "view",
      "type": "function"
    },
    {
      "inputs": [
        {
          "internalType": "uint256",
          "name": "index",
          "type": "uint256"
        }
      ],
      "name": "getCreatorShareAtIndex",
      "outputs": [
        {
          "internalType": "address",
          "name": "shareContract",
          "type": "address"
        }
      ],
      "stateMutability": "view",
      "type": "function"
    },
    {
      "inputs": [
        {
          "internalType": "address",
          "name": "creator",
          "type": "address"
        }
      ],
      "name": "getCreatorShareContract",
      "outputs": [
        {
          "internalType": "address",
          "name": "shareContract",
          "type": "address"
        }
      ],
      "stateMutability": "view",
      "type": "function"
    },
    {
      "inputs": [
        {
          "internalType": "address",
          "name": "creator",
          "type": "address"
        }
      ],
      "name": "getCreatorVolume",
      "outputs": [
        {
          "internalType": "uint256",
          "name": "volume",
          "type": "uint256"
        }
      ],
      "stateMutability": "view",
      "type": "function"
    },
    {
      "inputs": [
        {
          "internalType": "address",
          "name": "creator",
          "type": "address"
        }
      ],
      "name": "getRemainingVolumeToUnlock",
      "outputs": [
        {
          "internalType": "uint256",
          "name": "remaining",
          "type": "uint256"
        }
      ],
      "stateMutability": "view",
      "type": "function"
    },
    {
      "inputs": [],
      "name": "getTotalCreatorShares",
      "outputs": [
        {
          "internalType": "uint256",
          "name": "count",
          "type": "uint256"
        }
      ],
      "stateMutability": "view",
      "type": "function"
    },
    {
      "inputs": [
        {
          "internalType": "address",
          "name": "market",
          "type": "address"
        }
      ],
      "name": "isMarketWhitelisted",
      "outputs": [
        {
          "internalType": "bool",
          "name": "isWhitelisted",
          "type": "bool"
        }
      ],
      "stateMutability": "view",
      "type": "function"
    },
    {
      "inputs": [
        {
          "internalType": "address",
          "name": "creator",
          "type": "address"
        }
      ],
      "name": "isSharesUnlocked",
      "outputs": [
        {
          "internalType": "bool",
          "name": "unlocked",
          "type": "bool"
        }
      ],
      "stateMutability": "view",
      "type": "function"
    },
    {
      "inputs": [],
      "name": "owner",
      "outputs": [
        {
          "internalType": "address",
          "name": "",
          "type": "address"
        }
      ],
      "stateMutability": "view",
      "type": "function"
    },
    {
      "inputs": [
        {
          "internalType": "address",
          "name": "market",
          "type": "address"
        }
      ],
      "name": "removeMarketContract",
      "outputs": [],
      "stateMutability": "nonpayable",
      "type": "function"
    },
    {
      "inputs": [],
      "name": "renounceOwnership",
      "outputs": [],
      "stateMutability": "nonpayable",
      "type": "function"
    },
    {
      "inputs": [
        {
          "internalType": "address",
          "name": "",
          "type": "address"
        }
      ],
      "name": "sharesUnlocked",
      "outputs": [
        {
          "internalType": "bool",
          "name": "",
          "type": "bool"
        }
      ],
      "stateMutability": "view",
      "type": "function"
    },
    {
      "inputs": [
        {
          "internalType": "address",
          "name": "newOwner",
          "type": "address"
        }
      ],
      "name": "transferOwnership",
      "outputs": [],
      "stateMutability": "nonpayable",
      "type": "function"
    },
    {
      "inputs": [
        {
          "internalType": "address",
          "name": "creator",
          "type": "address"
        },
        {
          "internalType": "uint256",
          "name": "additionalVolume",
          "type": "uint256"
        }
      ],
      "name": "updateCreatorVolume",
      "outputs": [],
      "stateMutability": "nonpayable",
      "type": "function"
    },
    {
      "inputs": [],
      "name": "usdc",
      "outputs": [
        {
          "internalType": "address",
          "name": "",
          "type": "address"
        }
      ],
      "stateMutability": "view",
      "type": "function"
    },
    {
      "inputs": [
        {
          "internalType": "address",
          "name": "",
          "type": "address"
        }
      ],
      "name": "whitelistedMarkets",
      "outputs": [
        {
          "internalType": "bool",
          "name": "",
          "type": "bool"
        }
      ],
      "stateMutability": "view",
      "type": "function"
    }
  ],
  "bytecode": "0x60a060405234801561001057600080fd5b5060405162002fd638038062002fd68339810160408190526100319161013f565b806001600160a01b03811661006157604051631e4fbdf760e01b8152600060048201526024015b60405180910390fd5b61006a816100d3565b506001600160a01b0382166100c15760405162461bcd60e51b815260206004820152601460248201527f496e76616c6964205553444320616464726573730000000000000000000000006044820152606401610058565b506001600160a01b0316608052610172565b600080546001600160a01b038381166001600160a01b0319831681178455604051919092169283917f8be0079c531659141344cd1fd0a4f28419497f9722a3daafe3b4186f6b6457e09190a35050565b80516001600160a01b038116811461013a57600080fd5b919050565b6000806040838503121561015257600080fd5b61015b83610123565b915061016960208401610123565b90509250929050565b608051612e41620001956000396000818161028201526108ba0152612e416000f3fe60806040523480156200001157600080fd5b5060043610620001695760003560e01c8063715018a611620000d3578063a7abd9e41162000086578063a7abd9e414620003b9578063b17b558714620003c2578063bb22825814620003d9578063d2a3c29e14620003f0578063e68b49511462000416578063f2fde38b146200043c57600080fd5b8063715018a614620002eb5780637e591b7d14620002f557806380c39b6c146200033557806387b2084d14620003615780638da5cb5b1462000378578063904c3dcb146200038a57600080fd5b80630e64eec6116200012c5780630e64eec6146200021d578063385ec5b014620002655780633e413bee146200027c57806347524a9914620002a45780635655370214620002c75780636faf454d14620002de57600080fd5b806304e79afb146200016e5780630557137214620001ad5780630814662614620001d45780630a0f878a14620001ed5780630bb81fce1462000206575b600080fd5b6200019a6200017f36600462000c4c565b6001600160a01b031660009081526001602052604090205490565b6040519081526020015b60405180910390f35b620001c4620001be36600462000c4c565b62000453565b604051620001a492919062000cb2565b620001de62000549565b604051620001a4919062000cd7565b62000204620001fe36600462000c4c565b620005ad565b005b620002046200021736600462000d26565b6200063d565b6200024c6200022e36600462000c4c565b6001600160a01b039081166000908152600360205260409020541690565b6040516001600160a01b039091168152602001620001a4565b6200024c6200027636600462000d53565b620007be565b6200024c7f000000000000000000000000000000000000000000000000000000000000000081565b6200019a620002b536600462000c4c565b60016020526000908152604090205481565b6200024c620002d836600462000e18565b620007e9565b6200019a6406fc23ac0081565b62000204620009cc565b620003246200030636600462000c4c565b6001600160a01b031660009081526002602052604090205460ff1690565b6040519015158152602001620001a4565b6200024c6200034636600462000c4c565b6003602052600090815260409020546001600160a01b031681565b6200024c6200037236600462000d53565b620009e4565b6000546001600160a01b03166200024c565b620003246200039b36600462000c4c565b6001600160a01b031660009081526004602052604090205460ff1690565b6005546200019a565b6200019a620003d336600462000c4c565b62000a65565b62000204620003ea36600462000c4c565b62000ad6565b620003246200040136600462000c4c565b60026020526000908152604090205460ff1681565b620003246200042736600462000c4c565b60046020526000908152604090205460ff1681565b620002046200044d36600462000c4c565b62000b5e565b600060606001600160a01b038316620004a457505060408051808201909152601781527f496e76616c69642063726561746f7220616464726573730000000000000000006020820152600092909150565b6001600160a01b03831660009081526002602052604090205460ff16620004ea5760006040518060600160405280602e815260200162002dde602e913991509150915091565b6001600160a01b0383811660009081526003602052604090205416156200053057600060405180606001604052806024815260200162002dba6024913991509150915091565b5050604080516020810190915260008152600192909150565b60606005805480602002602001604051908101604052809291908181526020018280548015620005a357602002820191906000526020600020905b81546001600160a01b0316815260019091019060200180831162000584575b5050505050905090565b620005b762000ba2565b6001600160a01b038116620005df57604051633286abff60e01b815260040160405180910390fd5b6001600160a01b03811660008181526004602052604090819020805460ff19169055517f6c00eb37ac196e4113be9042313f2c7c1fc3cc1843ebc77f3d7b5836b685272790620006329042815260200190565b60405180910390a250565b3360009081526004602052604090205460ff166200066d57604051626c6d6560e01b815260040160405180910390fd5b6001600160a01b0382166200069557604051632953f2b160e11b815260040160405180910390fd5b6001600160a01b03821660009081526001602052604081205490620006bb838362000eab565b6001600160a01b03851660008181526001602090815260409182902084905581518781529081018490524281830152905192935090917f8524442cadfa77d76e4edf718e77cece5610a8b1cb20ba123cf0bcec3a6e75849181900360600190a26001600160a01b03841660009081526002602052604090205460ff161580156200074a57506406fc23ac008110155b15620007b8576001600160a01b03841660008181526002602052604090819020805460ff19166001179055517fb018ed4ec92b38533c94560fb932f36a92ecdb6fc6e3b05a4e4b60049881679590620007af9084904290918252602082015260400190565b60405180910390a25b50505050565b60058181548110620007cf57600080fd5b6000918252602090912001546001600160a01b0316905081565b60006001600160a01b0384166200081357604051632953f2b160e11b815260040160405180910390fd5b825115806200082157508151155b156200084057604051631ba4296560e11b815260040160405180910390fd5b6001600160a01b03841660009081526002602052604090205460ff166200087a57604051632b16ac5f60e11b815260040160405180910390fd5b6001600160a01b038481166000908152600360205260409020541615620008b45760405163ccbd871d60e01b815260040160405180910390fd5b600083837f000000000000000000000000000000000000000000000000000000000000000087604051620008e89062000c21565b620008f7949392919062000ec7565b604051809103906000f08015801562000914573d6000803e3d6000fd5b506001600160a01b0380871660008181526003602052604080822080549486166001600160a01b031995861681179091556005805460018101825593527f036b6384b5eca791c62761152d0c79bb0604c104a5fb6f4eb0703f3154bb3db090920180549094168217909355915192945084935090917fdc12cc0486dc3fbefbc72defa4f3c439552dccbb6d08b6358b1261779feb0d0d90620009bc9088908890429062000f15565b60405180910390a3509392505050565b620009d662000ba2565b620009e2600062000bd1565b565b600554600090821062000a345760405162461bcd60e51b8152602060048201526013602482015272496e646578206f7574206f6620626f756e647360681b60448201526064015b60405180910390fd5b6005828154811062000a4a5762000a4a62000f4f565b6000918252602090912001546001600160a01b031692915050565b6001600160a01b03811660009081526002602052604081205460ff161562000a8f57506000919050565b6001600160a01b0382166000908152600160205260409020546406fc23ac00811062000abe5750600092915050565b62000acf816406fc23ac0062000f65565b9392505050565b62000ae062000ba2565b6001600160a01b03811662000b0857604051633286abff60e01b815260040160405180910390fd5b6001600160a01b03811660008181526004602052604090819020805460ff19166001179055517f80d71a9da0fa64c1f19c07ec77a4ed5b7851ee5cbc33b64c6284d102a16a1fd490620006329042815260200190565b62000b6862000ba2565b6001600160a01b03811662000b9457604051631e4fbdf760e01b81526000600482015260240162000a2b565b62000b9f8162000bd1565b50565b6000546001600160a01b03163314620009e25760405163118cdaa760e01b815233600482015260240162000a2b565b600080546001600160a01b038381166001600160a01b0319831681178455604051919092169283917f8be0079c531659141344cd1fd0a4f28419497f9722a3daafe3b4186f6b6457e09190a35050565b611e3e8062000f7c83390190565b80356001600160a01b038116811462000c4757600080fd5b919050565b60006020828403121562000c5f57600080fd5b62000acf8262000c2f565b6000815180845260005b8181101562000c925760208185018101518683018201520162000c74565b506000602082860101526020601f19601f83011685010191505092915050565b821515815260406020820152600062000ccf604083018462000c6a565b949350505050565b6020808252825182820181905260009190848201906040850190845b8181101562000d1a5783516001600160a01b03168352928401929184019160010162000cf3565b50909695505050505050565b6000806040838503121562000d3a57600080fd5b62000d458362000c2f565b946020939093013593505050565b60006020828403121562000d6657600080fd5b5035919050565b634e487b7160e01b600052604160045260246000fd5b600082601f83011262000d9557600080fd5b813567ffffffffffffffff8082111562000db35762000db362000d6d565b604051601f8301601f19908116603f0116810190828211818310171562000dde5762000dde62000d6d565b8160405283815286602085880101111562000df857600080fd5b836020870160208301376000602085830101528094505050505092915050565b60008060006060848603121562000e2e57600080fd5b62000e398462000c2f565b9250602084013567ffffffffffffffff8082111562000e5757600080fd5b62000e658783880162000d83565b9350604086013591508082111562000e7c57600080fd5b5062000e8b8682870162000d83565b9150509250925092565b634e487b7160e01b600052601160045260246000fd5b8082018082111562000ec15762000ec162000e95565b92915050565b60808152600062000edc608083018762000c6a565b828103602084015262000ef0818762000c6a565b6001600160a01b03958616604085015293909416606090920191909152509392505050565b60608152600062000f2a606083018662000c6a565b828103602084015262000f3e818662000c6a565b915050826040830152949350505050565b634e487b7160e01b600052603260045260246000fd5b8181038181111562000ec15762000ec162000e9556fe60a06040523480156200001157600080fd5b5060405162001e3e38038062001e3e833981016040819052620000349162000241565b808484600362000045838262000361565b50600462000054828262000361565b5050506001600160a01b0381166200008757604051631e4fbdf760e01b8152600060048201526024015b60405180910390fd5b62000092816200010a565b5060016006556001600160a01b038216620000f05760405162461bcd60e51b815260206004820152601460248201527f496e76616c69642055534443206164647265737300000000000000000000000060448201526064016200007e565b506001600160a01b031660805250506001600a556200042d565b600580546001600160a01b038381166001600160a01b0319831681179093556040519116919082907f8be0079c531659141344cd1fd0a4f28419497f9722a3daafe3b4186f6b6457e090600090a35050565b634e487b7160e01b600052604160045260246000fd5b600082601f8301126200018457600080fd5b81516001600160401b0380821115620001a157620001a16200015c565b604051601f8301601f19908116603f01168101908282118183101715620001cc57620001cc6200015c565b8160405283815260209250866020858801011115620001ea57600080fd5b600091505b838210156200020e5785820183015181830184015290820190620001ef565b6000602085830101528094505050505092915050565b80516001600160a01b03811681146200023c57600080fd5b919050565b600080600080608085870312156200025857600080fd5b84516001600160401b03808211156200027057600080fd5b6200027e8883890162000172565b955060208701519150808211156200029557600080fd5b50620002a48782880162000172565b935050620002b56040860162000224565b9150620002c56060860162000224565b905092959194509250565b600181811c90821680620002e557607f821691505b6020821081036200030657634e487b7160e01b600052602260045260246000fd5b50919050565b601f8211156200035c576000816000526020600020601f850160051c81016020861015620003375750805b601f850160051c820191505b81811015620003585782815560010162000343565b5050505b505050565b81516001600160401b038111156200037d576200037d6200015c565b62000395816200038e8454620002d0565b846200030c565b602080601f831160018114620003cd5760008415620003b45750858301515b600019600386901b1c1916600185901b17855562000358565b600085815260208120601f198616915b82811015620003fe57888601518255948401946001909101908401620003dd565b50858210156200041d5787850151600019600388901b60f8161c191681555b5050505050600190811b01905550565b6080516119d9620004656000396000818161031701528181610819015281816109b601528181610c310152610d8001526119d96000f3fe608060405234801561001057600080fd5b50600436106102065760003560e01c806370a082311161011a578063a0754299116100ad578063d73792a91161007c578063d73792a91461044e578063dd62ed3e14610456578063ec3889b51461048f578063f2fde38b146104a2578063f4145a83146104b557600080fd5b8063a07542991461040d578063a9059cbb14610415578063ba730e5314610428578063d1a93d181461043b57600080fd5b80638456cb59116100e95780638456cb59146103cc5780638da5cb5b146103d457806395d89b41146103e557806397753472146103ed57600080fd5b806370a082311461038a578063715018a6146103b3578063771282f6146103bb57806382ae9ef7146103c457600080fd5b80632c3dcbc71161019d5780633f4ba83a1161016c5780633f4ba83a146103515780634ba8ae811461035b5780635c975abb1461036e57806366666aa914610379578063668038e01461038257600080fd5b80632c3dcbc7146102e7578063313ce567146102fa57806332cb6b0c146103095780633e413bee1461031257600080fd5b806318160ddd116101d957806318160ddd1461028d578063194a4e7e1461029557806323b872dd1461029e5780632a54ac7e146102b157600080fd5b806306fdde031461020b57806308d4db1414610229578063091156501461024a578063095ea7b31461026a575b600080fd5b6102136104be565b60405161022091906116b0565b60405180910390f35b61023c6102373660046116ff565b610550565b604051908152602001610220565b61023c6102583660046116ff565b6000908152600c602052604090205490565b61027d610278366004611734565b6105b8565b6040519015158152602001610220565b60025461023c565b61023c60095481565b61027d6102ac36600461175e565b6105d2565b61023c6102bf366004611734565b6001600160a01b03919091166000908152600e60209081526040808320938352929052205490565b61023c6102f536600461179a565b6105f6565b60405160128152602001610220565b61023c6103e881565b6103397f000000000000000000000000000000000000000000000000000000000000000081565b6040516001600160a01b039091168152602001610220565b6103596106d4565b005b6103596103693660046116ff565b6106e6565b60075460ff1661027d565b61023c60085481565b61035961089c565b61023c61039836600461179a565b6001600160a01b031660009081526020819052604090205490565b610359610a3b565b61023c600b5481565b610359610a4d565b610359610aed565b6005546001600160a01b0316610339565b610213610afd565b61023c6103fb3660046116ff565b6000908152600d602052604090205490565b61023c600581565b61027d610423366004611734565b610b0c565b61023c6104363660046116ff565b610b1a565b6103596104493660046116ff565b610ba0565b61023c606481565b61023c6104643660046117b5565b6001600160a01b03918216600090815260016020908152604080832093909416825291909152205490565b61035961049d36600461179a565b610cd1565b6103596104b036600461179a565b610dee565b61023c600a5481565b6060600380546104cd906117e8565b80601f01602080910402602001604051908101604052809291908181526020018280546104f9906117e8565b80156105465780601f1061051b57610100808354040283529160200191610546565b820191906000526020600020905b81548152906001019060200180831161052957829003601f168201915b5050505050905090565b60008160000361056257506000919050565b6103e882600b546105739190611838565b111561059257604051638a164f6360e01b815260040160405180910390fd5b60006105a0600b5484610e29565b90506105b164e8d4a510008261184b565b9392505050565b6000336105c6818585610efe565b60019150505b92915050565b6000336105e0858285610f10565b6105eb858585610f8f565b506001949350505050565b6001600160a01b0381166000908152600f6020526040812054819061061c906001611838565b905060006001600a5461062f919061186d565b905080821115610643575060009392505050565b815b8181116106cc576001600160a01b0385166000908152600e60209081526040808320848452825280832054600c835281842054600d909352922054821580159061068f5750600082115b156106b6578161069f8483611880565b6106a9919061184b565b6106b39088611838565b96505b50505080806106c490611897565b915050610645565b505050919050565b6106dc610fee565b6106e461101b565b565b6106ee61106d565b6106f6611097565b806000036107175760405163d11b25af60e01b815260040160405180910390fd5b3360009081526020819052604090205481111561074757604051633999656760e01b815260040160405180910390fd5b6000610755600b54836110bb565b9050600061076864e8d4a510008361184b565b905060006064610779600584611880565b610783919061184b565b90506000610791828461186d565b905060006107a060028461184b565b905060006107ae828561186d565b905081600860008282546107c29190611838565b9250508190555080600960008282546107db9190611838565b909155506107ea905033611168565b6107f433886111c8565b86600b6000828254610806919061186d565b9091555061084090506001600160a01b037f0000000000000000000000000000000000000000000000000000000000000000163385611202565b604080518881526020810185905290810185905242606082015233907fb3ceb42a32f3ca5e34d391e95bb615024463c833a09fc7f107311636234cf7619060800160405180910390a25050505050506108996001600655565b50565b6108a461106d565b336000908152600f602052604081205481906108c1906001611838565b905060006001600a546108d4919061186d565b9050808211156108f757604051633b90e8e160e21b815260040160405180910390fd5b815b81811161097c57336000908152600e60209081526040808320848452825280832054600c835281842054600d909352922054821580159061093a5750600082115b156109665760008261094c8584611880565b610956919061184b565b90506109628189611838565b9750505b505050808061097490611897565b9150506108f9565b508260000361099e57604051633b90e8e160e21b815260040160405180910390fd5b336000818152600f602052604090208290556109e5907f00000000000000000000000000000000000000000000000000000000000000006001600160a01b03169085611202565b604080518481526020810184905290810182905242606082015233907f2578db4c44b9b7b9a518f24cc94de6aa762f8ccbb8ac73984dd8c9e4a65ee9fd9060800160405180910390a25050506106e46001600655565b610a43610fee565b6106e46000611261565b610a55610fee565b600854600a546000908152600d6020526040902055600254600a80546000908152600c6020526040902091909155546008547f70801d4d63b3da6c19ba7349911f45bed5a99ccdfb51b8138c105872529bebd590610ab260025490565b604080519283526020830191909152429082015260600160405180910390a260006008819055600a805491610ae683611897565b9190505550565b610af5610fee565b6106e46112b3565b6060600480546104cd906117e8565b6000336105c6818585610f8f565b600081600003610b2c57506000919050565b600b54821115610b4f57604051633999656760e01b815260040160405180910390fd5b6000610b5d600b54846110bb565b90506000610b7064e8d4a510008361184b565b905060006064610b81600584611880565b610b8b919061184b565b9050610b97818361186d565b95945050505050565b610ba861106d565b610bb0611097565b80600003610bd15760405163d11b25af60e01b815260040160405180910390fd5b6103e881600b54610be29190611838565b1115610c0157604051638a164f6360e01b815260040160405180910390fd5b6000610c0f600b5483610e29565b90506000610c2264e8d4a510008361184b565b9050610c596001600160a01b037f0000000000000000000000000000000000000000000000000000000000000000163330846112f0565b610c6233611168565b610c6c3384611329565b82600b6000828254610c7e9190611838565b909155505060408051848152602081018390524281830152905133917f0ea2cc1a2a0fcfecef8b5ff9be41f8c0ca3770265a060b00de53118f88c91dfa919081900360600190a250506108996001600655565b610cd9610fee565b6001600160a01b038116610d285760405162461bcd60e51b8152602060048201526011602482015270125b9d985b1a59081c9958da5c1a595b9d607a1b60448201526064015b60405180910390fd5b60095480610d6e5760405162461bcd60e51b81526020600482015260136024820152724e6f206665657320746f20776974686472617760681b6044820152606401610d1f565b6000600955610da76001600160a01b037f0000000000000000000000000000000000000000000000000000000000000000168383611202565b816001600160a01b03167ffc7ad544ff6a06d6499925723d25b6fe70457a42939995b1d3d6f560fe33633382604051610de291815260200190565b60405180910390a25050565b610df6610fee565b6001600160a01b038116610e2057604051631e4fbdf760e01b815260006004820152602401610d1f565b61089981611261565b600081600003610e4c5760405163d11b25af60e01b815260040160405180910390fd5b6000610e588385611838565b90506103e8811115610e7d576040516361b7902560e11b815260040160405180910390fd5b83158015610e8b5750826001145b15610eac57610ea4611068670de0b6b3a764000061184b565b9150506105cc565b6000610eb9600383611994565b90506000610ec8600387611994565b9050611068670de0b6b3a7640000610ee0838561186d565b610eea9190611880565b610ef4919061184b565b9695505050505050565b610f0b838383600161135f565b505050565b6001600160a01b03838116600090815260016020908152604080832093861683529290522054600019811015610f895781811015610f7a57604051637dc7a0d960e11b81526001600160a01b03841660048201526024810182905260448101839052606401610d1f565b610f898484848403600061135f565b50505050565b6001600160a01b038316610fb957604051634b637e8f60e11b815260006004820152602401610d1f565b6001600160a01b038216610fe35760405163ec442f0560e01b815260006004820152602401610d1f565b610f0b838383611434565b6005546001600160a01b031633146106e45760405163118cdaa760e01b8152336004820152602401610d1f565b6110236114f2565b6007805460ff191690557f5db9ee0a495bf2e6ff9c91a7834c1ba4fdd244a5e8aa4e537bd38aeae4b073aa335b6040516001600160a01b03909116815260200160405180910390a1565b60026006540361109057604051633ee5aeb560e01b815260040160405180910390fd5b6002600655565b60075460ff16156106e45760405163d93c066560e01b815260040160405180910390fd5b6000816000036110de5760405163d11b25af60e01b815260040160405180910390fd5b828211156110ff57604051630cea840760e21b815260040160405180910390fd5b600061110b838561186d565b90508060000361114c576000611122600386611994565b9050611068611139670de0b6b3a764000083611880565b611143919061184b565b925050506105cc565b6000611159600386611994565b90506000610ec8600384611994565b6001600160a01b03811660009081526010602052604090205460ff16610899576001600160a01b031660008181526020818152604080832054600e8352818420600a5485528352818420559282526010905220805460ff19166001179055565b6001600160a01b0382166111f257604051634b637e8f60e11b815260006004820152602401610d1f565b6111fe82600083611434565b5050565b6040516001600160a01b03838116602483015260448201839052610f0b91859182169063a9059cbb906064015b604051602081830303815290604052915060e01b6020820180516001600160e01b038381831617835250505050611515565b600580546001600160a01b038381166001600160a01b0319831681179093556040519116919082907f8be0079c531659141344cd1fd0a4f28419497f9722a3daafe3b4186f6b6457e090600090a35050565b6112bb611097565b6007805460ff191660011790557f62e78cea01bee320cd4e420270b5ea74000d11b0c9f74754ebdbfc544b05a2586110503390565b6040516001600160a01b038481166024830152838116604483015260648201839052610f899186918216906323b872dd9060840161122f565b6001600160a01b0382166113535760405163ec442f0560e01b815260006004820152602401610d1f565b6111fe60008383611434565b6001600160a01b0384166113895760405163e602df0560e01b815260006004820152602401610d1f565b6001600160a01b0383166113b357604051634a1406b160e11b815260006004820152602401610d1f565b6001600160a01b0380851660009081526001602090815260408083209387168352929052208290558015610f8957826001600160a01b0316846001600160a01b03167f8c5be1e5ebec7d5bd14f71427d1e84f3dd0314c0f7b2291e5b200ac8c7c3b9258460405161142691815260200190565b60405180910390a350505050565b6001600160a01b0383161580159061145457506001600160a01b03821615155b1561146b5761146283611168565b61146b82611168565b611476838383611586565b6001600160a01b038316156114b3576001600160a01b03831660009081526020818152604080832054600e8352818420600a548552909252909120555b6001600160a01b03821615610f0b57506001600160a01b031660009081526020818152604080832054600e8352818420600a5485529092529091205550565b60075460ff166106e457604051638dfc202b60e01b815260040160405180910390fd5b600080602060008451602086016000885af180611538576040513d6000823e3d81fd5b50506000513d9150811561155057806001141561155d565b6001600160a01b0384163b155b15610f8957604051635274afe760e01b81526001600160a01b0385166004820152602401610d1f565b6001600160a01b0383166115b15780600260008282546115a69190611838565b909155506116239050565b6001600160a01b038316600090815260208190526040902054818110156116045760405163391434e360e21b81526001600160a01b03851660048201526024810182905260448101839052606401610d1f565b6001600160a01b03841660009081526020819052604090209082900390555b6001600160a01b03821661163f5760028054829003905561165e565b6001600160a01b03821660009081526020819052604090208054820190555b816001600160a01b0316836001600160a01b03167fddf252ad1be2c89b69c2b068fc378daa952ba7f163c4a11628f55a4df523b3ef836040516116a391815260200190565b60405180910390a3505050565b60006020808352835180602085015260005b818110156116de578581018301518582016040015282016116c2565b506000604082860101526040601f19601f8301168501019250505092915050565b60006020828403121561171157600080fd5b5035919050565b80356001600160a01b038116811461172f57600080fd5b919050565b6000806040838503121561174757600080fd5b61175083611718565b946020939093013593505050565b60008060006060848603121561177357600080fd5b61177c84611718565b925061178a60208501611718565b9150604084013590509250925092565b6000602082840312156117ac57600080fd5b6105b182611718565b600080604083850312156117c857600080fd5b6117d183611718565b91506117df60208401611718565b90509250929050565b600181811c908216806117fc57607f821691505b60208210810361181c57634e487b7160e01b600052602260045260246000fd5b50919050565b634e487b7160e01b600052601160045260246000fd5b808201808211156105cc576105cc611822565b60008261186857634e487b7160e01b600052601260045260246000fd5b500490565b818103818111156105cc576105cc611822565b80820281158282048414176105cc576105cc611822565b6000600182016118a9576118a9611822565b5060010190565b600181815b808511156118eb5781600019048211156118d1576118d1611822565b808516156118de57918102915b93841c93908002906118b5565b509250929050565b600082611902575060016105cc565b8161190f575060006105cc565b8160018114611925576002811461192f5761194b565b60019150506105cc565b60ff84111561194057611940611822565b50506001821b6105cc565b5060208310610133831016604e8410600b841016171561196e575081810a6105cc565b61197883836118b0565b806000190482111561198c5761198c611822565b029392505050565b60006105b160ff8416836118f356fea264697066735822122079dd09e9b03e591d5bf7cfb80f6c3a1fb6a157f94833ced1b839ec6acc567bc264736f6c6343000818003343726561746f7220616c726561647920686173206120736861726520636f6e7472616374536861726573206e6f7420756e6c6f636b6564202d20766f6c756d65207468726573686f6c64206e6f74206d6574a264697066735822122049075f1cb30a9f62b94d03d6a4cac25705ad78002dbc147faaef76fa6817960264736f6c63430008180033",
  "linkReferences": {},
  "deployedLinkReferences": {}
}