{
  "_format": "hh-sol-artifact-1",
  "contractName": "FeeCollector",
  "sourceName": "contracts/FeeCollector.sol",
  "abi": [
    {
      "inputs": [
        {
          "internalType": "address",
          "name": "_usdc",
          "type": "address"
        },
        {
          "internalType": "address",
          "name": "_owner",
          "type": "address"
        }
      ],
      "stateMutability": "nonpayable",
      "type": "constructor"
    },
    {
      "inputs": [],
      "name": "AmountCannotBeZero",
      "type": "error"
    },
    {
      "inputs": [],
      "name": "InsufficientBalance",
      "type": "error"
    },
    {
      "inputs": [],
      "name": "InvalidAddress",
      "type": "error"
    },
    {
      "inputs": [],
      "name": "NotWhitelisted",
      "type": "error"
    },
    {
      "inputs": [
        {
          "internalType": "address",
          "name": "owner",
          "type": "address"
        }
      ],
      "name": "OwnableInvalidOwner",
      "type": "error"
    },
    {
      "inputs": [
        {
          "internalType": "address",
          "name": "account",
          "type": "address"
        }
      ],
      "name": "OwnableUnauthorizedAccount",
      "type": "error"
    },
    {
      "inputs": [
        {
          "internalType": "address",
          "name": "token",
          "type": "address"
        }
      ],
      "name": "SafeERC20FailedOperation",
      "type": "error"
    },
    {
      "anonymous": false,
      "inputs": [
        {
          "indexed": true,
          "internalType": "address",
          "name": "depositor",
          "type": "address"
        },
        {
          "indexed": false,
          "internalType": "uint256",
          "name": "timestamp",
          "type": "uint256"
        }
      ],
      "name": "DepositorRemoved",
      "type": "event"
    },
    {
      "anonymous": false,
      "inputs": [
        {
          "indexed": true,
          "internalType": "address",
          "name": "depositor",
          "type": "address"
        },
        {
          "indexed": false,
          "internalType": "uint256",
          "name": "timestamp",
          "type": "uint256"
        }
      ],
      "name": "DepositorWhitelisted",
      "type": "event"
    },
    {
      "anonymous": false,
      "inputs": [
        {
          "indexed": true,
          "internalType": "address",
          "name": "source",
          "type": "address"
        },
        {
          "indexed": false,
          "internalType": "string",
          "name": "sourceType",
          "type": "string"
        },
        {
          "indexed": false,
          "internalType": "uint256",
          "name": "amount",
          "type": "uint256"
        },
        {
          "indexed": false,
          "internalType": "uint256",
          "name": "timestamp",
          "type": "uint256"
        }
      ],
      "name": "FeesDeposited",
      "type": "event"
    },
    {
      "anonymous": false,
      "inputs": [
        {
          "indexed": true,
          "internalType": "address",
          "name": "recipient",
          "type": "address"
        },
        {
          "indexed": false,
          "internalType": "uint256",
          "name": "amount",
          "type": "uint256"
        },
        {
          "indexed": false,
          "internalType": "uint256",
          "name": "timestamp",
          "type": "uint256"
        }
      ],
      "name": "FeesWithdrawn",
      "type": "event"
    },
    {
      "anonymous": false,
      "inputs": [
        {
          "indexed": true,
          "internalType": "address",
          "name": "previousOwner",
          "type": "address"
        },
        {
          "indexed": true,
          "internalType": "address",
          "name": "newOwner",
          "type": "address"
        }
      ],
      "name": "OwnershipTransferred",
      "type": "event"
    },
    {
      "inputs": [
        {
          "internalType": "address",
          "name": "depositor",
          "type": "address"
        }
      ],
      "name": "addDepositor",
      "outputs": [],
      "stateMutability": "nonpayable",
      "type": "function"
    },
    {
      "inputs": [
        {
          "internalType": "uint256",
          "name": "amount",
          "type": "uint256"
        }
      ],
      "name": "depositMarketFees",
      "outputs": [],
      "stateMutability": "nonpayable",
      "type": "function"
    },
    {
      "inputs": [
        {
          "internalType": "uint256",
          "name": "amount",
          "type": "uint256"
        }
      ],
      "name": "depositShareFees",
      "outputs": [],
      "stateMutability": "nonpayable",
      "type": "function"
    },
    {
      "inputs": [],
      "name": "getBalance",
      "outputs": [
        {
          "internalType": "uint256",
          "name": "balance",
          "type": "uint256"
        }
      ],
      "stateMutability": "view",
      "type": "function"
    },
    {
      "inputs": [],
      "name": "getMarketFees",
      "outputs": [
        {
          "internalType": "uint256",
          "name": "fees",
          "type": "uint256"
        }
      ],
      "stateMutability": "view",
      "type": "function"
    },
    {
      "inputs": [],
      "name": "getShareFees",
      "outputs": [
        {
          "internalType": "uint256",
          "name": "fees",
          "type": "uint256"
        }
      ],
      "stateMutability": "view",
      "type": "function"
    },
    {
      "inputs": [],
      "name": "getTotalFees",
      "outputs": [
        {
          "internalType": "uint256",
          "name": "total",
          "type": "uint256"
        }
      ],
      "stateMutability": "view",
      "type": "function"
    },
    {
      "inputs": [
        {
          "internalType": "address",
          "name": "depositor",
          "type": "address"
        }
      ],
      "name": "isWhitelisted",
      "outputs": [
        {
          "internalType": "bool",
          "name": "whitelisted",
          "type": "bool"
        }
      ],
      "stateMutability": "view",
      "type": "function"
    },
    {
      "inputs": [],
      "name": "owner",
      "outputs": [
        {
          "internalType": "address",
          "name": "",
          "type": "address"
        }
      ],
      "stateMutability": "view",
      "type": "function"
    },
    {
      "inputs": [
        {
          "internalType": "address",
          "name": "depositor",
          "type": "address"
        }
      ],
      "name": "removeDepositor",
      "outputs": [],
      "stateMutability": "nonpayable",
      "type": "function"
    },
    {
      "inputs": [],
      "name": "renounceOwnership",
      "outputs": [],
      "stateMutability": "nonpayable",
      "type": "function"
    },
    {
      "inputs": [],
      "name": "totalMarketFees",
      "outputs": [
        {
          "internalType": "uint256",
          "name": "",
          "type": "uint256"
        }
      ],
      "stateMutability": "view",
      "type": "function"
    },
    {
      "inputs": [],
      "name": "totalShareFees",
      "outputs": [
        {
          "internalType": "uint256",
          "name": "",
          "type": "uint256"
        }
      ],
      "stateMutability": "view",
      "type": "function"
    },
    {
      "inputs": [
        {
          "internalType": "address",
          "name": "newOwner",
          "type": "address"
        }
      ],
      "name": "transferOwnership",
      "outputs": [],
      "stateMutability": "nonpayable",
      "type": "function"
    },
    {
      "inputs": [],
      "name": "usdc",
      "outputs": [
        {
          "internalType": "contract IERC20",
          "name": "",
          "type": "address"
        }
      ],
      "stateMutability": "view",
      "type": "function"
    },
    {
      "inputs": [
        {
          "internalType": "address",
          "name": "",
          "type": "address"
        }
      ],
      "name": "whitelistedDepositors",
      "outputs": [
        {
          "internalType": "bool",
          "name": "",
          "type": "bool"
        }
      ],
      "stateMutability": "view",
      "type": "function"
    },
    {
      "inputs": [
        {
          "internalType": "address",
          "name": "recipient",
          "type": "address"
        },
        {
          "internalType": "uint256",
          "name": "amount",
          "type": "uint256"
        }
      ],
      "name": "withdraw",
      "outputs": [],
      "stateMutability": "nonpayable",
      "type": "function"
    }
  ],
  "bytecode": "0x60a060405234801561001057600080fd5b50604051610c20380380610c2083398101604081905261002f9161013d565b806001600160a01b03811661005f57604051631e4fbdf760e01b8152600060048201526024015b60405180910390fd5b610068816100d1565b506001600160a01b0382166100bf5760405162461bcd60e51b815260206004820152601460248201527f496e76616c6964205553444320616464726573730000000000000000000000006044820152606401610056565b506001600160a01b0316608052610170565b600080546001600160a01b038381166001600160a01b0319831681178455604051919092169283917f8be0079c531659141344cd1fd0a4f28419497f9722a3daafe3b4186f6b6457e09190a35050565b80516001600160a01b038116811461013857600080fd5b919050565b6000806040838503121561015057600080fd5b61015983610121565b915061016760208401610121565b90509250929050565b608051610a726101ae60003960008181610189015281816102980152818161036e015281816105110152818161065401526106f70152610a726000f3fe608060405234801561001057600080fd5b506004361061010b5760003560e01c80637166ba38116100a2578063a6c3dfe811610071578063a6c3dfe81461022c578063ba52cc371461023f578063f2fde38b14610247578063f3fef3a31461025a578063fc8acba21461026d57600080fd5b80637166ba38146101dc5780638b73e606146101ff5780638da5cb5b14610212578063a3a4a6e11461022357600080fd5b80633e413bee116100de5780633e413bee14610184578063626e1ae7146101c357806365154310146101cb578063715018a6146101d457600080fd5b806312065fe0146101105780631449023a1461012b57806332aa3e53146101405780633af32abf14610148575b600080fd5b610118610280565b6040519081526020015b60405180910390f35b61013e61013936600461097b565b610310565b005b600154610118565b6101746101563660046109b0565b6001600160a01b031660009081526003602052604090205460ff1690565b6040519015158152602001610122565b6101ab7f000000000000000000000000000000000000000000000000000000000000000081565b6040516001600160a01b039091168152602001610122565b61011861040c565b61011860025481565b61013e61041e565b6101746101ea3660046109b0565b60036020526000908152604090205460ff1681565b61013e61020d3660046109b0565b610432565b6000546001600160a01b03166101ab565b61011860015481565b61013e61023a36600461097b565b6104b3565b600254610118565b61013e6102553660046109b0565b6105a9565b61013e6102683660046109d2565b6105ec565b61013e61027b3660046109b0565b610766565b6040516370a0823160e01b81523060048201526000907f00000000000000000000000000000000000000000000000000000000000000006001600160a01b0316906370a0823190602401602060405180830381865afa1580156102e7573d6000803e3d6000fd5b505050506040513d601f19601f8201168201806040525081019061030b91906109fc565b905090565b3360009081526003602052604090205460ff1661034057604051630b094f2760e31b815260040160405180910390fd5b806000036103615760405163d11b25af60e01b815260040160405180910390fd5b6103966001600160a01b037f0000000000000000000000000000000000000000000000000000000000000000163330846107ea565b80600160008282546103a89190610a15565b909155505060408051606080825260059082015264736861726560d81b608082015260208101839052429181019190915233907fe50f8f11fba92113485a06d8e1d6c6c9440ba0bbc42af3ac337aaa29f2aaec269060a0015b60405180910390a250565b600060025460015461030b9190610a15565b610426610857565b6104306000610884565b565b61043a610857565b6001600160a01b0381166104615760405163e6c4247b60e01b815260040160405180910390fd5b6001600160a01b03811660008181526003602052604090819020805460ff19169055517f8395c05f4af0e28784eeb1de5524a512a3ed06f7a9ab019a360ac053c50e401d906104019042815260200190565b3360009081526003602052604090205460ff166104e357604051630b094f2760e31b815260040160405180910390fd5b806000036105045760405163d11b25af60e01b815260040160405180910390fd5b6105396001600160a01b037f0000000000000000000000000000000000000000000000000000000000000000163330846107ea565b806002600082825461054b9190610a15565b9091555050604080516060808252600690820152651b585c9ad95d60d21b608082015260208101839052429181019190915233907fe50f8f11fba92113485a06d8e1d6c6c9440ba0bbc42af3ac337aaa29f2aaec269060a001610401565b6105b1610857565b6001600160a01b0381166105e057604051631e4fbdf760e01b8152600060048201526024015b60405180910390fd5b6105e981610884565b50565b6105f4610857565b6001600160a01b03821661061b5760405163e6c4247b60e01b815260040160405180910390fd5b8060000361063c5760405163d11b25af60e01b815260040160405180910390fd5b6040516370a0823160e01b81523060048201526000907f00000000000000000000000000000000000000000000000000000000000000006001600160a01b0316906370a0823190602401602060405180830381865afa1580156106a3573d6000803e3d6000fd5b505050506040513d601f19601f820116820180604052508101906106c791906109fc565b9050808211156106ea57604051631e9acf1760e31b815260040160405180910390fd5b61071e6001600160a01b037f00000000000000000000000000000000000000000000000000000000000000001684846108d4565b604080518381524260208201526001600160a01b038516917fdeb5099d7943aa2b4c1142e5d53d2f7636aa8f7bd130ec79816f151572bcdf45910160405180910390a2505050565b61076e610857565b6001600160a01b0381166107955760405163e6c4247b60e01b815260040160405180910390fd5b6001600160a01b03811660008181526003602052604090819020805460ff19166001179055517ff034553cd63d1ab496219f191582779dcd003d8ed4de268365e17c9bf52ba6d7906104019042815260200190565b6040516001600160a01b0384811660248301528381166044830152606482018390526108519186918216906323b872dd906084015b604051602081830303815290604052915060e01b6020820180516001600160e01b03838183161783525050505061090a565b50505050565b6000546001600160a01b031633146104305760405163118cdaa760e01b81523360048201526024016105d7565b600080546001600160a01b038381166001600160a01b0319831681178455604051919092169283917f8be0079c531659141344cd1fd0a4f28419497f9722a3daafe3b4186f6b6457e09190a35050565b6040516001600160a01b0383811660248301526044820183905261090591859182169063a9059cbb9060640161081f565b505050565b600080602060008451602086016000885af18061092d576040513d6000823e3d81fd5b50506000513d91508115610945578060011415610952565b6001600160a01b0384163b155b1561085157604051635274afe760e01b81526001600160a01b03851660048201526024016105d7565b60006020828403121561098d57600080fd5b5035919050565b80356001600160a01b03811681146109ab57600080fd5b919050565b6000602082840312156109c257600080fd5b6109cb82610994565b9392505050565b600080604083850312156109e557600080fd5b6109ee83610994565b946020939093013593505050565b600060208284031215610a0e57600080fd5b5051919050565b80820180821115610a3657634e487b7160e01b600052601160045260246000fd5b9291505056fea2646970667358221220f717fbed75858687f093dad27305dbec2c64f687af07e3c09c84fc8cd896012064736f6c63430008180033",
  "linkReferences": {},
  "deployedLinkReferences": {}
}