{
  "_format": "hh-sol-artifact-1",
  "contractName": "OpinionMarket",
  "sourceName": "contracts/OpinionMarket.sol",
  "abi": [
    {
      "inputs": [
        {
          "internalType": "address",
          "name": "_usdc",
          "type": "address"
        },
        {
          "internalType": "address",
          "name": "_factory",
          "type": "address"
        },
        {
          "internalType": "address",
          "name": "_platformFeeCollector",
          "type": "address"
        },
        {
          "internalType": "address",
          "name": "_owner",
          "type": "address"
        }
      ],
      "stateMutability": "nonpayable",
      "type": "constructor"
    },
    {
      "inputs": [],
      "name": "AlreadyClaimed",
      "type": "error"
    },
    {
      "inputs": [],
      "name": "AmountCannotBeZero",
      "type": "error"
    },
    {
      "inputs": [],
      "name": "InvalidDuration",
      "type": "error"
    },
    {
      "inputs": [],
      "name": "InvalidOutcome",
      "type": "error"
    },
    {
      "inputs": [],
      "name": "InvalidOutcomeCount",
      "type": "error"
    },
    {
      "inputs": [],
      "name": "MarketAlreadyResolved",
      "type": "error"
    },
    {
      "inputs": [],
      "name": "MarketDoesNotExist",
      "type": "error"
    },
    {
      "inputs": [],
      "name": "MarketEnded",
      "type": "error"
    },
    {
      "inputs": [],
      "name": "MarketIsPaused",
      "type": "error"
    },
    {
      "inputs": [],
      "name": "MarketNotActive",
      "type": "error"
    },
    {
      "inputs": [],
      "name": "MarketNotEnded",
      "type": "error"
    },
    {
      "inputs": [],
      "name": "MarketNotResolved",
      "type": "error"
    },
    {
      "inputs": [],
      "name": "NoWinningsToClaim",
      "type": "error"
    },
    {
      "inputs": [
        {
          "internalType": "address",
          "name": "owner",
          "type": "address"
        }
      ],
      "name": "OwnableInvalidOwner",
      "type": "error"
    },
    {
      "inputs": [
        {
          "internalType": "address",
          "name": "account",
          "type": "address"
        }
      ],
      "name": "OwnableUnauthorizedAccount",
      "type": "error"
    },
    {
      "inputs": [],
      "name": "ReentrancyGuardReentrantCall",
      "type": "error"
    },
    {
      "inputs": [
        {
          "internalType": "address",
          "name": "token",
          "type": "address"
        }
      ],
      "name": "SafeERC20FailedOperation",
      "type": "error"
    },
    {
      "anonymous": false,
      "inputs": [
        {
          "indexed": true,
          "internalType": "uint256",
          "name": "marketId",
          "type": "uint256"
        },
        {
          "indexed": true,
          "internalType": "address",
          "name": "user",
          "type": "address"
        },
        {
          "indexed": false,
          "internalType": "uint256",
          "name": "outcome",
          "type": "uint256"
        },
        {
          "indexed": false,
          "internalType": "uint256",
          "name": "amount",
          "type": "uint256"
        },
        {
          "indexed": false,
          "internalType": "uint256",
          "name": "shares",
          "type": "uint256"
        },
        {
          "indexed": false,
          "internalType": "uint256",
          "name": "timestamp",
          "type": "uint256"
        }
      ],
      "name": "BetPlaced",
      "type": "event"
    },
    {
      "anonymous": false,
      "inputs": [
        {
          "indexed": true,
          "internalType": "uint256",
          "name": "marketId",
          "type": "uint256"
        },
        {
          "indexed": false,
          "internalType": "uint256",
          "name": "platformFee",
          "type": "uint256"
        },
        {
          "indexed": false,
          "internalType": "uint256",
          "name": "creatorFee",
          "type": "uint256"
        },
        {
          "indexed": false,
          "internalType": "uint256",
          "name": "shareholderFee",
          "type": "uint256"
        },
        {
          "indexed": false,
          "internalType": "uint256",
          "name": "timestamp",
          "type": "uint256"
        }
      ],
      "name": "FeesCollected",
      "type": "event"
    },
    {
      "anonymous": false,
      "inputs": [
        {
          "indexed": true,
          "internalType": "uint256",
          "name": "marketId",
          "type": "uint256"
        },
        {
          "indexed": true,
          "internalType": "address",
          "name": "creator",
          "type": "address"
        },
        {
          "indexed": false,
          "internalType": "string",
          "name": "title",
          "type": "string"
        },
        {
          "indexed": false,
          "internalType": "string[]",
          "name": "outcomes",
          "type": "string[]"
        },
        {
          "indexed": false,
          "internalType": "uint256",
          "name": "endTime",
          "type": "uint256"
        },
        {
          "indexed": false,
          "internalType": "uint256",
          "name": "timestamp",
          "type": "uint256"
        }
      ],
      "name": "MarketCreated",
      "type": "event"
    },
    {
      "anonymous": false,
      "inputs": [
        {
          "indexed": true,
          "internalType": "uint256",
          "name": "marketId",
          "type": "uint256"
        },
        {
          "indexed": false,
          "internalType": "uint256",
          "name": "timestamp",
          "type": "uint256"
        }
      ],
      "name": "MarketPaused",
      "type": "event"
    },
    {
      "anonymous": false,
      "inputs": [
        {
          "indexed": true,
          "internalType": "uint256",
          "name": "marketId",
          "type": "uint256"
        },
        {
          "indexed": false,
          "internalType": "uint256",
          "name": "winningOutcome",
          "type": "uint256"
        },
        {
          "indexed": false,
          "internalType": "uint256",
          "name": "timestamp",
          "type": "uint256"
        }
      ],
      "name": "MarketResolved",
      "type": "event"
    },
    {
      "anonymous": false,
      "inputs": [
        {
          "indexed": true,
          "internalType": "uint256",
          "name": "marketId",
          "type": "uint256"
        },
        {
          "indexed": false,
          "internalType": "uint256",
          "name": "timestamp",
          "type": "uint256"
        }
      ],
      "name": "MarketUnpaused",
      "type": "event"
    },
    {
      "anonymous": false,
      "inputs": [
        {
          "indexed": true,
          "internalType": "address",
          "name": "previousOwner",
          "type": "address"
        },
        {
          "indexed": true,
          "internalType": "address",
          "name": "newOwner",
          "type": "address"
        }
      ],
      "name": "OwnershipTransferred",
      "type": "event"
    },
    {
      "anonymous": false,
      "inputs": [
        {
          "indexed": true,
          "internalType": "uint256",
          "name": "marketId",
          "type": "uint256"
        },
        {
          "indexed": true,
          "internalType": "address",
          "name": "user",
          "type": "address"
        },
        {
          "indexed": false,
          "internalType": "uint256",
          "name": "amount",
          "type": "uint256"
        },
        {
          "indexed": false,
          "internalType": "uint256",
          "name": "timestamp",
          "type": "uint256"
        }
      ],
      "name": "WinningsClaimed",
      "type": "event"
    },
    {
      "inputs": [],
      "name": "BPS_DENOMINATOR",
      "outputs": [
        {
          "internalType": "uint256",
          "name": "",
          "type": "uint256"
        }
      ],
      "stateMutability": "view",
      "type": "function"
    },
    {
      "inputs": [],
      "name": "CREATOR_FEE_BPS",
      "outputs": [
        {
          "internalType": "uint256",
          "name": "",
          "type": "uint256"
        }
      ],
      "stateMutability": "view",
      "type": "function"
    },
    {
      "inputs": [],
      "name": "INITIAL_LIQUIDITY",
      "outputs": [
        {
          "internalType": "uint256",
          "name": "",
          "type": "uint256"
        }
      ],
      "stateMutability": "view",
      "type": "function"
    },
    {
      "inputs": [],
      "name": "MAX_DURATION",
      "outputs": [
        {
          "internalType": "uint256",
          "name": "",
          "type": "uint256"
        }
      ],
      "stateMutability": "view",
      "type": "function"
    },
    {
      "inputs": [],
      "name": "MAX_OUTCOMES",
      "outputs": [
        {
          "internalType": "uint256",
          "name": "",
          "type": "uint256"
        }
      ],
      "stateMutability": "view",
      "type": "function"
    },
    {
      "inputs": [],
      "name": "MIN_DURATION",
      "outputs": [
        {
          "internalType": "uint256",
          "name": "",
          "type": "uint256"
        }
      ],
      "stateMutability": "view",
      "type": "function"
    },
    {
      "inputs": [],
      "name": "MIN_OUTCOMES",
      "outputs": [
        {
          "internalType": "uint256",
          "name": "",
          "type": "uint256"
        }
      ],
      "stateMutability": "view",
      "type": "function"
    },
    {
      "inputs": [],
      "name": "PLATFORM_FEE_BPS",
      "outputs": [
        {
          "internalType": "uint256",
          "name": "",
          "type": "uint256"
        }
      ],
      "stateMutability": "view",
      "type": "function"
    },
    {
      "inputs": [],
      "name": "SHAREHOLDER_FEE_BPS",
      "outputs": [
        {
          "internalType": "uint256",
          "name": "",
          "type": "uint256"
        }
      ],
      "stateMutability": "view",
      "type": "function"
    },
    {
      "inputs": [],
      "name": "TOTAL_FEE_BPS",
      "outputs": [
        {
          "internalType": "uint256",
          "name": "",
          "type": "uint256"
        }
      ],
      "stateMutability": "view",
      "type": "function"
    },
    {
      "inputs": [
        {
          "internalType": "uint256",
          "name": "marketId",
          "type": "uint256"
        },
        {
          "internalType": "uint256",
          "name": "outcome",
          "type": "uint256"
        },
        {
          "internalType": "uint256",
          "name": "amount",
          "type": "uint256"
        }
      ],
      "name": "calculateShares",
      "outputs": [
        {
          "internalType": "uint256",
          "name": "shares",
          "type": "uint256"
        }
      ],
      "stateMutability": "view",
      "type": "function"
    },
    {
      "inputs": [
        {
          "internalType": "uint256",
          "name": "marketId",
          "type": "uint256"
        }
      ],
      "name": "claimWinnings",
      "outputs": [],
      "stateMutability": "nonpayable",
      "type": "function"
    },
    {
      "inputs": [
        {
          "internalType": "string",
          "name": "title",
          "type": "string"
        },
        {
          "internalType": "string[]",
          "name": "outcomes",
          "type": "string[]"
        },
        {
          "internalType": "uint256",
          "name": "duration",
          "type": "uint256"
        },
        {
          "internalType": "string",
          "name": "description",
          "type": "string"
        }
      ],
      "name": "createMarket",
      "outputs": [
        {
          "internalType": "uint256",
          "name": "marketId",
          "type": "uint256"
        }
      ],
      "stateMutability": "nonpayable",
      "type": "function"
    },
    {
      "inputs": [],
      "name": "factory",
      "outputs": [
        {
          "internalType": "contract CreatorShareFactory",
          "name": "",
          "type": "address"
        }
      ],
      "stateMutability": "view",
      "type": "function"
    },
    {
      "inputs": [
        {
          "internalType": "uint256",
          "name": "marketId",
          "type": "uint256"
        }
      ],
      "name": "getMarketInfo",
      "outputs": [
        {
          "components": [
            {
              "internalType": "uint256",
              "name": "id",
              "type": "uint256"
            },
            {
              "internalType": "address",
              "name": "creator",
              "type": "address"
            },
            {
              "internalType": "string",
              "name": "title",
              "type": "string"
            },
            {
              "internalType": "string",
              "name": "description",
              "type": "string"
            },
            {
              "internalType": "string[]",
              "name": "outcomes",
              "type": "string[]"
            },
            {
              "internalType": "uint256",
              "name": "endTime",
              "type": "uint256"
            },
            {
              "internalType": "enum OpinionMarket.MarketStatus",
              "name": "status",
              "type": "uint8"
            },
            {
              "internalType": "uint256",
              "name": "totalVolume",
              "type": "uint256"
            },
            {
              "internalType": "uint256",
              "name": "winningOutcome",
              "type": "uint256"
            },
            {
              "internalType": "bool",
              "name": "paused",
              "type": "bool"
            },
            {
              "internalType": "uint256",
              "name": "createdAt",
              "type": "uint256"
            }
          ],
          "internalType": "struct OpinionMarket.Market",
          "name": "market",
          "type": "tuple"
        }
      ],
      "stateMutability": "view",
      "type": "function"
    },
    {
      "inputs": [
        {
          "internalType": "uint256",
          "name": "marketId",
          "type": "uint256"
        },
        {
          "internalType": "uint256",
          "name": "outcome",
          "type": "uint256"
        }
      ],
      "name": "getOutcomeProbability",
      "outputs": [
        {
          "internalType": "uint256",
          "name": "probability",
          "type": "uint256"
        }
      ],
      "stateMutability": "view",
      "type": "function"
    },
    {
      "inputs": [
        {
          "internalType": "uint256",
          "name": "marketId",
          "type": "uint256"
        },
        {
          "internalType": "address",
          "name": "user",
          "type": "address"
        }
      ],
      "name": "getUserPosition",
      "outputs": [
        {
          "internalType": "uint256[]",
          "name": "shares",
          "type": "uint256[]"
        }
      ],
      "stateMutability": "view",
      "type": "function"
    },
    {
      "inputs": [
        {
          "internalType": "uint256",
          "name": "",
          "type": "uint256"
        },
        {
          "internalType": "address",
          "name": "",
          "type": "address"
        }
      ],
      "name": "hasClaimed",
      "outputs": [
        {
          "internalType": "bool",
          "name": "",
          "type": "bool"
        }
      ],
      "stateMutability": "view",
      "type": "function"
    },
    {
      "inputs": [
        {
          "internalType": "uint256",
          "name": "",
          "type": "uint256"
        }
      ],
      "name": "markets",
      "outputs": [
        {
          "internalType": "uint256",
          "name": "id",
          "type": "uint256"
        },
        {
          "internalType": "address",
          "name": "creator",
          "type": "address"
        },
        {
          "internalType": "string",
          "name": "title",
          "type": "string"
        },
        {
          "internalType": "string",
          "name": "description",
          "type": "string"
        },
        {
          "internalType": "uint256",
          "name": "endTime",
          "type": "uint256"
        },
        {
          "internalType": "enum OpinionMarket.MarketStatus",
          "name": "status",
          "type": "uint8"
        },
        {
          "internalType": "uint256",
          "name": "totalVolume",
          "type": "uint256"
        },
        {
          "internalType": "uint256",
          "name": "winningOutcome",
          "type": "uint256"
        },
        {
          "internalType": "bool",
          "name": "paused",
          "type": "bool"
        },
        {
          "internalType": "uint256",
          "name": "createdAt",
          "type": "uint256"
        }
      ],
      "stateMutability": "view",
      "type": "function"
    },
    {
      "inputs": [],
      "name": "nextMarketId",
      "outputs": [
        {
          "internalType": "uint256",
          "name": "",
          "type": "uint256"
        }
      ],
      "stateMutability": "view",
      "type": "function"
    },
    {
      "inputs": [
        {
          "internalType": "uint256",
          "name": "",
          "type": "uint256"
        },
        {
          "internalType": "uint256",
          "name": "",
          "type": "uint256"
        }
      ],
      "name": "outcomeReserves",
      "outputs": [
        {
          "internalType": "uint256",
          "name": "",
          "type": "uint256"
        }
      ],
      "stateMutability": "view",
      "type": "function"
    },
    {
      "inputs": [],
      "name": "owner",
      "outputs": [
        {
          "internalType": "address",
          "name": "",
          "type": "address"
        }
      ],
      "stateMutability": "view",
      "type": "function"
    },
    {
      "inputs": [
        {
          "internalType": "uint256",
          "name": "marketId",
          "type": "uint256"
        }
      ],
      "name": "pauseMarket",
      "outputs": [],
      "stateMutability": "nonpayable",
      "type": "function"
    },
    {
      "inputs": [
        {
          "internalType": "uint256",
          "name": "marketId",
          "type": "uint256"
        },
        {
          "internalType": "uint256",
          "name": "outcome",
          "type": "uint256"
        },
        {
          "internalType": "uint256",
          "name": "amount",
          "type": "uint256"
        }
      ],
      "name": "placeBet",
      "outputs": [],
      "stateMutability": "nonpayable",
      "type": "function"
    },
    {
      "inputs": [],
      "name": "platformFeeCollector",
      "outputs": [
        {
          "internalType": "address",
          "name": "",
          "type": "address"
        }
      ],
      "stateMutability": "view",
      "type": "function"
    },
    {
      "inputs": [],
      "name": "renounceOwnership",
      "outputs": [],
      "stateMutability": "nonpayable",
      "type": "function"
    },
    {
      "inputs": [
        {
          "internalType": "uint256",
          "name": "marketId",
          "type": "uint256"
        },
        {
          "internalType": "uint256",
          "name": "winningOutcome",
          "type": "uint256"
        }
      ],
      "name": "resolveMarket",
      "outputs": [],
      "stateMutability": "nonpayable",
      "type": "function"
    },
    {
      "inputs": [
        {
          "internalType": "uint256",
          "name": "",
          "type": "uint256"
        },
        {
          "internalType": "uint256",
          "name": "",
          "type": "uint256"
        }
      ],
      "name": "totalOutcomeShares",
      "outputs": [
        {
          "internalType": "uint256",
          "name": "",
          "type": "uint256"
        }
      ],
      "stateMutability": "view",
      "type": "function"
    },
    {
      "inputs": [
        {
          "internalType": "address",
          "name": "newOwner",
          "type": "address"
        }
      ],
      "name": "transferOwnership",
      "outputs": [],
      "stateMutability": "nonpayable",
      "type": "function"
    },
    {
      "inputs": [
        {
          "internalType": "uint256",
          "name": "marketId",
          "type": "uint256"
        }
      ],
      "name": "unpauseMarket",
      "outputs": [],
      "stateMutability": "nonpayable",
      "type": "function"
    },
    {
      "inputs": [
        {
          "internalType": "address",
          "name": "newCollector",
          "type": "address"
        }
      ],
      "name": "updatePlatformFeeCollector",
      "outputs": [],
      "stateMutability": "nonpayable",
      "type": "function"
    },
    {
      "inputs": [],
      "name": "usdc",
      "outputs": [
        {
          "internalType": "contract IERC20",
          "name": "",
          "type": "address"
        }
      ],
      "stateMutability": "view",
      "type": "function"
    },
    {
      "inputs": [
        {
          "internalType": "uint256",
          "name": "",
          "type": "uint256"
        },
        {
          "internalType": "address",
          "name": "",
          "type": "address"
        },
        {
          "internalType": "uint256",
          "name": "",
          "type": "uint256"
        }
      ],
      "name": "userOutcomeShares",
      "outputs": [
        {
          "internalType": "uint256",
          "name": "",
          "type": "uint256"
        }
      ],
      "stateMutability": "view",
      "type": "function"
    }
  ],
  "bytecode": "0x60c06040523480156200001157600080fd5b50604051620022cb380380620022cb83398101604081905262000034916200021f565b806001600160a01b0381166200006557604051631e4fbdf760e01b8152600060048201526024015b60405180910390fd5b6200007081620001b2565b50600180556001600160a01b038416620000cd5760405162461bcd60e51b815260206004820152601460248201527f496e76616c69642055534443206164647265737300000000000000000000000060448201526064016200005c565b6001600160a01b038316620001255760405162461bcd60e51b815260206004820152601760248201527f496e76616c696420666163746f7279206164647265737300000000000000000060448201526064016200005c565b6001600160a01b0382166200017d5760405162461bcd60e51b815260206004820152601560248201527f496e76616c69642066656520636f6c6c6563746f72000000000000000000000060448201526064016200005c565b506001600160a01b0392831660805290821660a052600280546001600160a01b0319169190921617905560016003556200027c565b600080546001600160a01b038381166001600160a01b0319831681178455604051919092169283917f8be0079c531659141344cd1fd0a4f28419497f9722a3daafe3b4186f6b6457e09190a35050565b80516001600160a01b03811681146200021a57600080fd5b919050565b600080600080608085870312156200023657600080fd5b620002418562000202565b9350620002516020860162000202565b9250620002616040860162000202565b9150620002716060860162000202565b905092959194509250565b60805160a051612006620002c560003960008181610459015261160f01526000818161024b01528181610a8b015281816111940152818161158c01526115c201526120066000f3fe608060405234801561001057600080fd5b50600436106101fb5760003560e01c8063875ca3d31161011a578063c45a0155116100ad578063e1a452181161007c578063e1a452181461049e578063e71c9697146104a7578063eea04d09146104ba578063f2fde38b146104ce578063fc12524c146104e157600080fd5b8063c45a015514610454578063cc3cbd2a1461047b578063d0bad8ae14610483578063dc73d1641461049657600080fd5b8063b058eab3116100e9578063b058eab314610405578063b1283e7714610418578063b1724b4614610441578063b6a6d1771461044b57600080fd5b8063875ca3d31461038557806387784844146103b65780638da5cb5b146103c9578063afff27be146103da57600080fd5b806360557333116101925780637428d1d9116101615780637428d1d91461030c578063853a65f914610314578063869da9db14610327578063873f6f9e1461034757600080fd5b806360557333146102d6578063677bd9ff146102e95780636f28507c146102fc578063715018a61461030457600080fd5b8063406ef2ef116101ce578063406ef2ef146102a557806352889e7c146102ae578063539aa77f146102c357806355097bf1146102cb57600080fd5b80630a5998ec1461020057806319d466a81461021b5780633e413bee146102465780633ec7919314610285575b600080fd5b610208600f81565b6040519081526020015b60405180910390f35b610208610229366004611816565b600560209081526000928352604080842090915290825290205481565b61026d7f000000000000000000000000000000000000000000000000000000000000000081565b6040516001600160a01b039091168152602001610212565b610298610293366004611838565b6104f4565b6040516102129190611929565b61020860035481565b6102c16102bc366004611a25565b6107a4565b005b610208604b81565b610208633b9aca0081565b6102c16102e4366004611816565b61081b565b6102c16102f7366004611838565b61092a565b610208609681565b6102c1610b07565b610208600281565b60025461026d906001600160a01b031681565b61033a610335366004611a47565b610b1b565b6040516102129190611a73565b610375610355366004611a47565b600760209081526000928352604080842090915290825290205460ff1681565b6040519015158152602001610212565b610208610393366004611ab7565b600660209081526000938452604080852082529284528284209052825290205481565b6102c16103c4366004611838565b610be1565b6000546001600160a01b031661026d565b6102086103e8366004611816565b600860209081526000928352604080842090915290825290205481565b610208610413366004611816565b610c5f565b61042b610426366004611838565b610d20565b6040516102129a99989796959493929190611aec565b61020862093a8081565b61020861546081565b61026d7f000000000000000000000000000000000000000000000000000000000000000081565b610208603c81565b610208610491366004611c22565b610e90565b610208600481565b61020861271081565b6102c16104b5366004611d35565b611009565b6102086104c8366004611d35565b92915050565b6102c16104dc366004611a25565b61132f565b6102c16104ef366004611838565b61136a565b6104fc6116e3565b6000828152600460209081526040918290208251610160810184528154815260018201546001600160a01b031692810192909252600281018054929391929184019161054790611d61565b80601f016020809104026020016040519081016040528092919081815260200182805461057390611d61565b80156105c05780601f10610595576101008083540402835291602001916105c0565b820191906000526020600020905b8154815290600101906020018083116105a357829003601f168201915b505050505081526020016003820180546105d990611d61565b80601f016020809104026020016040519081016040528092919081815260200182805461060590611d61565b80156106525780601f1061062757610100808354040283529160200191610652565b820191906000526020600020905b81548152906001019060200180831161063557829003601f168201915b5050505050815260200160048201805480602002602001604051908101604052809291908181526020016000905b8282101561072c57838290600052602060002001805461069f90611d61565b80601f01602080910402602001604051908101604052809291908181526020018280546106cb90611d61565b80156107185780601f106106ed57610100808354040283529160200191610718565b820191906000526020600020905b8154815290600101906020018083116106fb57829003601f168201915b505050505081526020019060010190610680565b5050509082525060058201546020820152600682015460409091019060ff16600381111561075c5761075c6118f1565b600381111561076d5761076d6118f1565b81526007820154602082015260088201546040820152600982015460ff1615156060820152600a9091015460809091015292915050565b6107ac6113e5565b6001600160a01b0381166107f95760405162461bcd60e51b815260206004820152600f60248201526e496e76616c6964206164647265737360881b60448201526064015b60405180910390fd5b600280546001600160a01b0319166001600160a01b0392909216919091179055565b6108236113e5565b600082815260046020526040812080549091036108535760405163b0cfa44760e01b815260040160405180910390fd5b8060050154421015610878576040516302d56b1d60e21b815260040160405180910390fd5b6001600682015460ff166003811115610893576108936118f1565b036108b15760405163aa43cb2d60e01b815260040160405180910390fd5b600481015482106108d55760405163c74a206d60e01b815260040160405180910390fd5b60068101805460ff19166001179055600881018290556040805183815242602082015284917ffb14f4692212f419f2ea8d2046f8a1cc95c640e63f713d03292ca95e111c96a0910160405180910390a2505050565b610932611412565b600081815260046020526040812080549091036109625760405163b0cfa44760e01b815260040160405180910390fd5b6001600682015460ff16600381111561097d5761097d6118f1565b1461099b5760405163174b639360e11b815260040160405180910390fd5b600082815260076020908152604080832033845290915290205460ff16156109d657604051630c8d9eab60e31b815260040160405180910390fd5b600082815260066020908152604080832033845282528083206008850154845290915281205490819003610a1d57604051634519bd6360e01b815260040160405180910390fd5b600083815260086020818152604080842092860154845291905281205490610a448561143c565b9050600082610a538584611db1565b610a5d9190611dc8565b6000878152600760209081526040808320338085529252909120805460ff19166001179055909150610aba907f00000000000000000000000000000000000000000000000000000000000000006001600160a01b0316908361148d565b60408051828152426020820152339188917f6256309dc4c6375473b26b31fc0e88b0ca9ebca0e558d39fec5aa96863ad40cb910160405180910390a35050505050610b0460018055565b50565b610b0f6113e5565b610b1960006114ec565b565b6000828152600460208190526040909120908101546060919067ffffffffffffffff811115610b4c57610b4c611b6b565b604051908082528060200260200182016040528015610b75578160200160208202803683370190505b50915060005b6004820154811015610bd95760008581526006602090815260408083206001600160a01b038816845282528083208484529091529020548351849083908110610bc657610bc6611dea565b6020908102919091010152600101610b7b565b505092915050565b610be96113e5565b60008181526004602052604081208054909103610c195760405163b0cfa44760e01b815260040160405180910390fd5b60098101805460ff1916905560405142815282907fe0715ec8ba0b8819553361daadd6455bc016100b85464f4da2f3fb076d92b307906020015b60405180910390a25050565b60008281526004602081905260408220908101548310610c925760405163c74a206d60e01b815260040160405180910390fd5b6000805b6004830154811015610cd0576000868152600560209081526040808320848452909152902054610cc69083611e00565b9150600101610c96565b5080600003610ce4576000925050506104c8565b60008581526005602090815260408083208784529091529020548190610d0d9061271090611db1565b610d179190611dc8565b95945050505050565b60046020526000908152604090208054600182015460028301805492936001600160a01b0390921692610d5290611d61565b80601f0160208091040260200160405190810160405280929190818152602001828054610d7e90611d61565b8015610dcb5780601f10610da057610100808354040283529160200191610dcb565b820191906000526020600020905b815481529060010190602001808311610dae57829003601f168201915b505050505090806003018054610de090611d61565b80601f0160208091040260200160405190810160405280929190818152602001828054610e0c90611d61565b8015610e595780601f10610e2e57610100808354040283529160200191610e59565b820191906000526020600020905b815481529060010190602001808311610e3c57829003601f168201915b5050505060058301546006840154600785015460088601546009870154600a909701549596939560ff93841695509193909216908a565b6000600284511080610ea3575060048451115b15610ec15760405163162cc9e360e11b815260040160405180910390fd5b615460831080610ed3575062093a8083115b15610ef157604051637616640160e01b815260040160405180910390fd5b60038054906000610f0183611e13565b9091555090506000610f138442611e00565b60008381526004602052604090208381556001810180546001600160a01b0319163317905590915060028101610f498882611e7c565b5060038101610f588582611e7c565b508551610f6e9060048301906020890190611759565b506005810182905560068101805460ff1916905542600a82015560005b8651811015610fb6576000848152600560209081526040808320848452909152812055600101610f8b565b50336001600160a01b0316837fb74650ec457c79e542e6dc3439682b1e65667a701f90ecc3d1e2d280c61add7b89898642604051610ff79493929190611f3c565b60405180910390a35050949350505050565b611011611412565b600083815260046020526040812080549091036110415760405163b0cfa44760e01b815260040160405180910390fd5b6000600682015460ff16600381111561105c5761105c6118f1565b1461107a57604051635a90bb8d60e11b815260040160405180910390fd5b8060050154421061109e5760405163262b753160e21b815260040160405180910390fd5b600981015460ff16156110c45760405163741df93960e01b815260040160405180910390fd5b600481015483106110e85760405163c74a206d60e01b815260040160405180910390fd5b816000036111095760405163d11b25af60e01b815260040160405180910390fd5b6000612710611119609685611db1565b6111239190611dc8565b90506000612710611135604b86611db1565b61113f9190611dc8565b90506000612710611151603c87611db1565b61115b9190611dc8565b9050600061271061116d600f88611db1565b6111779190611dc8565b905060006111858588611fbd565b90506111bc6001600160a01b037f00000000000000000000000000000000000000000000000000000000000000001633308a61153c565b600089815260066020908152604080832033845282528083208b84529091528120805483928392916111ef908490611e00565b909155505060008a81526008602090815260408083208c84529091528120805483929061121d908490611e00565b909155505060008a81526005602090815260408083208c84529091528120805484929061124b908490611e00565b92505081905550878760070160008282546112669190611e00565b90915550506001870154611286906001600160a01b03168686868c61157b565b604080518a8152602081018a905290810182905242606082015233908b907f09244fca582b635a41f699bd862dd5f0cc97996c09f56b0fb6bb65e9335721f79060800160405180910390a360408051868152602081018690529081018490524260608201528a907f60335fc6da5dde7dc66197a635e02eb0dafc452a299f77200b64358c94cdb6169060800160405180910390a25050505050505061132a60018055565b505050565b6113376113e5565b6001600160a01b03811661136157604051631e4fbdf760e01b8152600060048201526024016107f0565b610b04816114ec565b6113726113e5565b600081815260046020526040812080549091036113a25760405163b0cfa44760e01b815260040160405180910390fd5b60098101805460ff1916600117905560405182907fb8f06a25cc84c52718941dad0357402df13e19fd951ab15179c180b414b8662190610c539042815260200190565b6000546001600160a01b03163314610b195760405163118cdaa760e01b81523360048201526024016107f0565b60026001540361143557604051633ee5aeb560e01b815260040160405180910390fd5b6002600155565b6000818152600460205260408120815b600482015481101561148657600084815260056020908152604080832084845290915290205461147c9084611e00565b925060010161144c565b5050919050565b6040516001600160a01b0383811660248301526044820183905261132a91859182169063a9059cbb906064015b604051602081830303815290604052915060e01b6020820180516001600160e01b038381831617835250505050611672565b600080546001600160a01b038381166001600160a01b0319831681178455604051919092169283917f8be0079c531659141344cd1fd0a4f28419497f9722a3daafe3b4186f6b6457e09190a35050565b6040516001600160a01b0384811660248301528381166044830152606482018390526115759186918216906323b872dd906084016114ba565b50505050565b6002546115b5906001600160a01b037f0000000000000000000000000000000000000000000000000000000000000000811691168661148d565b6115e96001600160a01b037f000000000000000000000000000000000000000000000000000000000000000016868561148d565b6040516305dc0fe760e11b81526001600160a01b038681166004830152602482018390527f00000000000000000000000000000000000000000000000000000000000000001690630bb81fce90604401600060405180830381600087803b15801561165357600080fd5b505af1158015611667573d6000803e3d6000fd5b505050505050505050565b600080602060008451602086016000885af180611695576040513d6000823e3d81fd5b50506000513d915081156116ad5780600114156116ba565b6001600160a01b0384163b155b1561157557604051635274afe760e01b81526001600160a01b03851660048201526024016107f0565b6040518061016001604052806000815260200160006001600160a01b031681526020016060815260200160608152602001606081526020016000815260200160006003811115611735576117356118f1565b81526020016000815260200160008152602001600015158152602001600081525090565b82805482825590600052602060002090810192821561179f579160200282015b8281111561179f578251829061178f9082611e7c565b5091602001919060010190611779565b506117ab9291506117af565b5090565b808211156117ab5760006117c382826117cc565b506001016117af565b5080546117d890611d61565b6000825580601f106117e8575050565b601f016020900490600052602060002090810190610b0491905b808211156117ab5760008155600101611802565b6000806040838503121561182957600080fd5b50508035926020909101359150565b60006020828403121561184a57600080fd5b5035919050565b6000815180845260005b818110156118775760208185018101518683018201520161185b565b506000602082860101526020601f19601f83011685010191505092915050565b60008282518085526020808601955060208260051b8401016020860160005b848110156118e457601f198684030189526118d2838351611851565b988401989250908301906001016118b6565b5090979650505050505050565b634e487b7160e01b600052602160045260246000fd5b6004811061192557634e487b7160e01b600052602160045260246000fd5b9052565b60208152815160208201526000602083015161195060408401826001600160a01b03169052565b50604083015161016080606085015261196d610180850183611851565b91506060850151601f198086850301608087015261198b8483611851565b935060808701519150808685030160a0870152506119a98382611897565b92505060a085015160c085015260c08501516119c860e0860182611907565b5060e085015161010085810191909152850151610120808601919091528501516101406119f88187018315159052565b959095015193019290925250919050565b80356001600160a01b0381168114611a2057600080fd5b919050565b600060208284031215611a3757600080fd5b611a4082611a09565b9392505050565b60008060408385031215611a5a57600080fd5b82359150611a6a60208401611a09565b90509250929050565b6020808252825182820181905260009190848201906040850190845b81811015611aab57835183529284019291840191600101611a8f565b50909695505050505050565b600080600060608486031215611acc57600080fd5b83359250611adc60208501611a09565b9150604084013590509250925092565b8a81526001600160a01b038a16602082015261014060408201819052600090611b178382018c611851565b90508281036060840152611b2b818b611851565b915050876080830152611b4160a0830188611907565b60c082019590955260e0810193909352901515610100830152610120909101529695505050505050565b634e487b7160e01b600052604160045260246000fd5b604051601f8201601f1916810167ffffffffffffffff81118282101715611baa57611baa611b6b565b604052919050565b600082601f830112611bc357600080fd5b813567ffffffffffffffff811115611bdd57611bdd611b6b565b611bf0601f8201601f1916602001611b81565b818152846020838601011115611c0557600080fd5b816020850160208301376000918101602001919091529392505050565b60008060008060808587031215611c3857600080fd5b843567ffffffffffffffff80821115611c5057600080fd5b611c5c88838901611bb2565b9550602091508187013581811115611c7357600080fd5b8701601f81018913611c8457600080fd5b803582811115611c9657611c96611b6b565b8060051b611ca5858201611b81565b918252828101850191858101908c841115611cbf57600080fd5b86850192505b83831015611cfb57823586811115611cdd5760008081fd5b611ceb8e8983890101611bb2565b8352509186019190860190611cc5565b985050505060408801359450506060870135915080821115611d1c57600080fd5b50611d2987828801611bb2565b91505092959194509250565b600080600060608486031215611d4a57600080fd5b505081359360208301359350604090920135919050565b600181811c90821680611d7557607f821691505b602082108103611d9557634e487b7160e01b600052602260045260246000fd5b50919050565b634e487b7160e01b600052601160045260246000fd5b80820281158282048414176104c8576104c8611d9b565b600082611de557634e487b7160e01b600052601260045260246000fd5b500490565b634e487b7160e01b600052603260045260246000fd5b808201808211156104c8576104c8611d9b565b600060018201611e2557611e25611d9b565b5060010190565b601f82111561132a576000816000526020600020601f850160051c81016020861015611e555750805b601f850160051c820191505b81811015611e7457828155600101611e61565b505050505050565b815167ffffffffffffffff811115611e9657611e96611b6b565b611eaa81611ea48454611d61565b84611e2c565b602080601f831160018114611edf5760008415611ec75750858301515b600019600386901b1c1916600185901b178555611e74565b600085815260208120601f198616915b82811015611f0e57888601518255948401946001909101908401611eef565b5085821015611f2c5787850151600019600388901b60f8161c191681555b5050505050600190811b01905550565b608081526000611f4f6080830187611851565b6020838203818501528187518084528284019150828160051b850101838a0160005b83811015611f9f57601f19878403018552611f8d838351611851565b94860194925090850190600101611f71565b50506040870198909852505050506060909101919091525092915050565b818103818111156104c8576104c8611d9b56fea2646970667358221220532091c6ef68db3275c1e6c2efb327f153e4c80bccfd75dd49349aa02955f7f364736f6c63430008180033",
  "linkReferences": {},
  "deployedLinkReferences": {}
}